:020000040800F2
:10000000080D00207D010008850100088701000817
:10001000890100088B0100088D0100080000000024
:100020000000000000000000000000008F01000838
:1000300091010008000000009301000895010008EC
:100040009701000897010008970100089701000830
:100050009701000897010008970100089701000820
:100060009701000897010008970100089701000810
:100070009701000897010008970100089701000800
:1000800097010008970100089701000897010008F0
:1000900097010008970100089701000897010008E0
:1000A00097010008970100089701000897010008D0
:1000B000FD0E0008970100089701000831080008AC
:1000C000FD07000897010008970100089701000844
:1000D00097010008970100089701000897010008A0
:1000E00097010008970100089701000800F002F846
:1000F00000F034F80AA090E8000C82448344AAF18E
:100100000107DA4501D100F029F8AFF2090EBAE88B
:100110000F0013F0010F18BFFB1A43F0010318473B
:1001200010120000201200000023002400250026E9
:10013000103A28BF78C1FBD8520728BF30C148BF4A
:100140000B607047782900F09580732900F0468293
:10015000002070471FB51FBD10B510BD00F070FA2C
:100160001146FFF7F7FF01F08BF800F08EFA03B4A9
:10017000FFF7F2FF03BC00F095FA00000948804742
:1001800009480047FEE7FEE7FEE7FEE7FEE7FEE779
:10019000FEE7FEE7FEE7FEE704480549054A064B91
:1001A00070470000A50E0008ED00000808070020B9
:1001B000080D002008090020080900200FB4044998
:1001C00010B503AA029800F00DFA10BC5DF814FBFC
:1001D0006000002070B5044685690068C10601D53D
:1001E000302600E02026C00707D070BDD4E90121E9
:1001F00030469047206A401C20626D1EF6D570BDC7
:1002000070B5044685690078C00707D170BDD4E990
:10021000012120209047206A401C20626D1EF6D5E7
:1002200070BD70B50C460546012A05D028788006B9
:1002300000D5EA69002302E0012305E05B1C93423C
:1002400002D2E05C0028F9D1A869E618C01AA861BA
:10025000286A184428622846FFF7BCFF04E0D5E965
:10026000012114F8010B9047B442F8D32846FFF758
:10027000C7FF70BD70B504460D4621461068AFF348
:1002800000802188090502D50F4A7A4402E00E4A0F
:100290007A440E32002104F1240305E000F00F0639
:1002A0000009965D5E54491C0028F7D12078002390
:1002B000000704D5702D02D009B102231132204667
:1002C000BDE8704000F01FB92C1000002DE9F05F70
:1002D000894604464FF0000ADFF824B1FB44C0F819
:1002E00020A02046E168884700287DD0252806D038
:1002F000D4E901219047206A401C2062F1E70025E3
:100300005F462046E16888472028064607DB312EF5
:1003100005D2B81910F8200C08B10543F1E7A80779
:1003200001D525F00405C4F81CA00027C4F818A0C6
:100330002A2E09D0304600F0B9FF38B304EB870805
:10034000303EC8F8186019E059F8041B204604EB49
:1003500087029161E1688847012F064618D1E0695C
:10036000002820DA25F020051DE0D8F8180000EB61
:10037000800006EB40003038C8F818002046E168DD
:100380008847064600F092FF0028EED1012F0AD0E0
:100390002E2E08D12046E16888477F1C0646022F92
:1003A00045F02005C4DBA069002803DA404245F08F
:1003B0000105A061E80701D025F01005A6B1A6F15E
:1003C0004100192802D8203645F400654A463146D6
:1003D000204625604D46FFF7B5FE60B1012807D0E5
:1003E000ED1D25F0070000E007E000F1080978E7BF
:1003F00005F1040975E730467AE7206ABDE8F09F09
:100400000210000010B5044603E000F031FF401C6C
:1004100009D014F8010B05490028F6D1BDE81040B9
:100420000A2000F025BF4FF0FF3010BD6000002013
:100430004FF0000200B5134694469646203922BF7D
:10044000A0E80C50A0E80C50B1F12001BFF4F7AFC8
:10045000090728BFA0E80C5048BF0CC05DF804EBAA
:10046000890028BF40F8042B08BF704748BF20F818
:10047000022B11F0804F18BF00F8012B70470000CD
:100480004FF0013C50F8042B51F8043B9A4221D123
:10049000A2EB0C03934313EACC1317D150F8042BAF
:1004A00051F8043B9A4215D1A2EB0C03934313EA93
:1004B000CC130BD150F8042B51F8043B9A4209D1CC
:1004C000A2EB0C03934313EACC13DBD04FF00000F4
:1004D000704700BFD01A01BAB1FA81F101F01801DA
:1004E00022FA01F0CB40DBB2C0B2C01AC1F1200148
:1004F0002CFA01F3D11A914311EAC311E6D17047E6
:100500007047704770472DE9F0470D46994692466F
:10051000044600F124080168880604D5E06921F04A
:100520001001216000E00120A84201DD471B00E02E
:100530000027A1697A1902EB0900081AA061207846
:10054000C00602D42046FFF745FE002608E0D4E9A5
:1005500001211AF806009047206A401C761C206290
:100560004E45F4DB2078C0060AD52046FFF732FE60
:1005700006E0D4E9012130209047206A401C206227
:10058000381EA7F10107F4DC07E0D4E9012118F8CF
:1005900005009047206A401C2062281EA5F1010535
:1005A000F3DC2046FFF72CFE2078000602D502205F
:1005B000BDE8F0870120FBE710B5436913B1AFF345
:1005C000008001E0FFF72DFE012010BD127800F140
:1005D00024010A7000224A700122EDE711684FF0F1
:1005E000FF32E9E7074B70B50D467B4400F011F888
:1005F0000446284600F020F810B14FF0FF3070BDDF
:10060000204670BD830C000001694A1C0261087815
:10061000704700B58FB0CDE9013100210591054942
:100620007944CDE9031011466846FFF74FFE0FB03D
:1006300000BD0000E5FFFFFF007B00F08000704779
:10064000754600F02BF8AE4605006946534620F08B
:100650000700854618B020B5FFF79EFDBDE8204095
:100660004FF000064FF000074FF000084FF0000B6E
:10067000AC46ACE8C009ACE8C009ACE8C009ACE8DD
:10068000C00921F007018D46704710B50446AFF34D
:1006900000802046BDE81040FFF769BD0048704764
:1006A0000000002001491820ABBEFEE72600020032
:1006B0007047000010B540F2BC04C2F200042046AE
:1006C0004021FFF7B5FE002000F0A8FD207060700B
:1006D000A07010BDF0B581B040F2BC06C2F20006B9
:1006E00096F90070002F2ED407F07F0000F08CFDEB
:1006F00071780446084600F087FDB1780546084643
:1007000000F082FD611CCAB23C2A04460CD30135BC
:10071000E8B23C2807D30134E0B2002100251728B5
:1007200088BF002400E00021C8B207F0800700F075
:1007300075FD38433070E8B200F070FD7070E0B2C3
:1007400000F06CFDB07001B0F0BD00002DE9F0418B
:10075000CA7802F00F0CD30644BF8B784CEA030C26
:1007600009880B0621D0056800234FF001084FF0DF
:100770000F0E002608E000BF282A08BF4761013697
:10078000082E03F104030FD008FA06F70F42F6D043
:100790000EFA03F425EA04040CFA03F5482A45EAA4
:1007A0000405E9D10761EAE70560B1F5807F38BF4C
:1007B000BDE8F081446800234FF4807E4FF00F08BD
:1007C000002607E0282A08BF47610136082E03F1FA
:1007D000040310D00EFA06F707EA0105BD42F4D172
:1007E00008FA03F5AC430CFA03F5482A44EA050479
:1007F000E8D10761E9E74460BDE8F08180B545F2E2
:100800001440C4F200000188490558BF80BD01882A
:1008100021F48061018040F2FE00C2F2000000215C
:10082000017002A0002100F0A1F980BD4E0000007F
:10083000F0B581B045F200440225C4F20004C0F2D4
:1008400000252046294600F073F840F2FE07C2F268
:100850000007A8B1A08A218B41F20732480741F274
:100860002430C0F60000C0F6000258BF1046C1F3A5
:1008700080013970002100F079F9387800F0DAF859
:100880008026C0F20066A6F14001204600F050F834
:1008900030B1387820B9204600F0C6F800F018F9D9
:1008A0002046314600F044F868B1387801280AD172
:1008B0002046314600F03CF828B100F03FF90146EF
:1008C000204600F0B5F805F10E01204600F030F8A2
:1008D00060B1A08A0021ADF80200208840F001003C
:1008E000208003A000F042F900F020F901B0F0BD33
:1008F000530000000288002942F0010308BF22F0E3
:10090000010303807047000010B545F20041C4F2B6
:1009100000014FF48004884208BF4FF400142046C1
:10092000012100F0E1F92046002100F0DDF910BDC1
:100930008288808A02EA1142084002F4E06218BF0D
:100940000120002A18BF012210407047002A828827
:100950000CBF22EA010111438180704770B586B057
:10096000044680880D4620F03F0601A800F0D4F927
:1009700003994DF68360C4F21B30A1FB000346EAE5
:100980009340A080208820F0010020802A6848F24F
:10099000A060C0F2010082424FEA934008D85200A2
:1009A000B1FBF2F14FF6FC72114208BF042125E0C1
:1009B000EB884BF6FF76B34204D102EB4202B1FB67
:1009C000F2F105E019235A43B1FBF2F141F4804101
:1009D0004FF49672504344F6D352C1F26202A0FB28
:1009E000020208466FF31F30B0FA80F04009084356
:1009F00048F20001CFF6FF710143900901302084D5
:100A0000A18320884FF6F53140F001002080208836
:100A10006A890840A988084310432080A889298949
:100A20000843208106B070BD008AC0B27047000044
:100A30000182704740F2B401C2F20001002818BFE1
:100A40000120087070470000B0B586B00546082048
:100A5000012100F055F94FF40010012100F038F9A0
:100A6000C02045F20044C1F60340C4F200040590E2
:100A700004F5384005A9FFF769FE2046FFF744FF5B
:100A80000020CBF6FF7002906800ADF80C0040F239
:100A90000040C4F20000CDF80E0048F2A060C0F2A1
:100AA0000100019001A92046FFF758FF20464FF4AE
:100AB000E0610122FFF74AFF1F2000F08DFB20209C
:100AC00000F08AFB20460121FFF714FF06B0B0BDFD
:100AD00010B540F2B402C2F20002117800290146BA
:100AE00012D040F2B804C2F20004207840F2BC02F6
:100AF000C2F2000211540CA000F038F82078013046
:100B000000F03F00207010BD40F2B800C2F20000BB
:100B100001F03F0101700120107002A000F026F8E2
:100B200010BD00BF505452004D57000040F2B400B9
:100B3000C2F200000021017070470000B0B540F221
:100B4000B805C2F20005287840F2BC01C2F20001EB
:100B50000C5C05A0214600F009F82878013000F06F
:100B60003F0120462970B0BD5354000010B540F23B
:100B7000B60EC2F2000EBEF8002040F2001CC2F217
:100B8000000C531CBCF8002003F07F03934202BF0B
:100B9000013202F07F02ACF8002040F2FC0CC2F2FD
:100BA000000CBCF80020541CACF80040BEF800401B
:100BB00040F2041C04EB4404C2F2000C2CF8242084
:100BC000BEF8002002EB42020CEB82025060BEF83D
:100BD000000000EB40000CEB80000172AEF800302A
:100BE00010BD00002DE9F04F81B040F2001740F237
:100BF000B605C2F20007C2F200053888298888428B
:100C000002D101B0BDE8F08F40F2041840F204793F
:100C1000C2F2000821A4C2F200090FF2840B0DE019
:100C20009AF8080000F03F0089F800003888013089
:100C300000F07F00388029888842E2D080B200EB43
:100C4000400008EB800ADAF8046021463046FFF7DE
:100C500017FC0028E4D030465946FFF711FC78B164
:100C6000304610A1FFF70CFC0028DFD199F80000F6
:100C700000F0E4FA9AF8082001460BA008E000BF53
:100C800099F8000000F0DAFA9AF8082001460BA063
:100C9000FFF794FA99F800000130C3E7505452006E
:100CA0004D57000053540000524420252D35732029
:100CB0002D3E203078253032580A0000575220252A
:100CC0002D3573203D203078253032580A00000041
:100CD000002941F21C01C4F202010A680CBF22EA99
:100CE0000000104308607047002941F21001C4F26F
:100CF00002010A680CBF22EA000010430860704736
:100D0000002941F21801C4F202010A680CBF22EA6C
:100D1000000010430860704710B541F20404C4F2AB
:100D20000204226802F00C02082A41F20022C0F2FA
:100D30007A021CD12368D4F800C0C3F3834E5FEA63
:100D4000CC330EF1020C06D440F60012C0F23D0284
:100D50000CFB02F20BE023689B0302D40CFB02F2B3
:100D600005E040F60012C0F23D020CFB02F2026008
:100D7000226841F2F723C2F30312C0F600039A5C23
:100D80000168D14041602268C2F302229A5C21FAD4
:100D900002F282602268C2F3C2229A5C41F2F3231B
:100DA000D140C1602268C0F60003C2F381329A5C70
:100DB000B1FBF2F1016110BDB0B543F60005044688
:100DC000C4F201052846802100F04EF90028F9D030
:100DD0002846214600F0C0F9B0BD000080B500F003
:100DE00001F880BD82B041F204000021C4F202008B
:100DF0000191009150F8041C41F4803140F8041C2A
:100E000050F8041C01F40031009101990131019165
:100E1000009919B90199B1F5A06FF1D150F8041CEE
:100E2000890354BF0021012100910099012936D185
:100E300042F20001C4F202010A6842F010020A60A4
:100E40000A6822F007020A600A6842F002020A6099
:100E50000168016001680160016841F4806101601E
:100E6000016821F47C110160016841F4E81101601E
:100E700050F8041C41F0807140F8041C50F8041C28
:100E80008901FBD5016821F003010160016841F08F
:100E900002010160016801F00C010829FAD102B0D9
:100EA0007047000080B541F20000C4F20200016802
:100EB000002241F0010101604168CFF6FF021140BC
:100EC000416001684FF6FF72CFF6F6621140016093
:100ED000016821F480210160416821F4FE01416034
:100EE0004FF41F018160FFF779FF4EF60850CEF2F4
:100EF00000004FF00061016080BD000080B54FF040
:100F00008040012100F01AF8002808BF80BD4FF092
:100F10008040012100F004F800F098F880BD000046
:100F2000C9430182704700000288002942F0010392
:100F300008BF22F00103038070470000028A808905
:100F40000A4018BF0122084018BF01201040704716
:100F5000002A82890CBF22EA010111438181704776
:100F600040F6FF33B0F800C0C4F2000398420FDC33
:100F7000B0F1804F1ED040F20043C4F2000398420B
:100F800018D040F60003C4F20003984212D016E0D5
:100F900040F60043C4F2000398420BD043F20043F2
:100FA000C4F20103984205D042F60043C4F20103A3
:100FB000984204D14B882CF0700243EA020C41F2B3
:100FC000004240F48063C4F20002934204D0CA8815
:100FD0002CF4407342EA030CA0F800C08A88828592
:100FE000A0F18042A2F596320B884FEAB222072A7E
:100FF000038507D8012303FA02F212F0E50F1CBFA4
:10100000097A0186012181827047000080B584B091
:1010100001200121FFF75CFE41F61F40019042F2E2
:101020000F70029001A94FF08040FFF799FF4FF039
:10103000804001210122FFF78BFF00F0DDF84FF027
:1010400080400121FFF770FF04B080BD80B5FFF73D
:1010500041FB80BD8289002942F4005308BF22F47D
:1010600000538381704700000088084018BF0120AA
:1010700070470000C1F3421301F01F0C1421022B32
:1010800008BF1021012B4FF0010308BF0C21002ADB
:1010900003FA0CF243580CBF23EA02021A434250EF
:1010A0007047000070B586B00446008A0D46C988B6
:1010B00020F4405008432082A0894EF6F3110840E6
:1010C000A9882A896B89084310431843A081A08A04
:1010D000A98920F44070084301AEA0823046FFF792
:1010E0001BFE43F6000106F10800C4F201018C4228
:1010F00008BF06F10C0000681922B4F90C10504327
:101100002A680223002948BF012302FA03F1B0FB39
:10111000F1F048F21F51C5F2EB11A0FB01235A096F
:101120006FF0630302FB0300B4F90C300426002BBC
:1011300048BF032600FA06F000F13200A0FB0101CF
:101140004FF00F0048BF072000EA511040EA02109C
:10115000208106B070BD00006FF35F218180704771
:1011600070B586B044F204000121FFF7C9FD43F6D3
:10117000000440F20020C4F20104C1F60300A4F50B
:10118000405505AE059028463146FFF7DFFA0420AA
:101190008DF817004FF48060ADF8140028463146F2
:1011A000FFF7D4FA4FF4E130019000204FF44021D2
:1011B000ADF81000CDE9020101A92046FFF772FF4A
:1011C000204640F225510122FFF754FF204601211D
:1011D000FFF740FF06B070BD002848BF704700F021
:1011E0001F01012202FA01F14EF200124009CEF273
:1011F000000242F8201070474EF20010CEF20000BC
:101200004FF0805101607047010901EB810100F04E
:101210000F0000EB4100C0B2704700004CF6CD411A
:10122000CCF6CC41A0FB0112D10801EB8102A0EB6E
:10123000420040EA0110C0B27047000007288FBF8B
:1012400002A040B202A151F82000704752414D0067
:101250000A1300081E130008271300082C130008A7
:101260000E130008131300082213000819130008B6
:1012700010B50446C0B2FFF79FFD204610BD000028
:10128000FFF710FEFFF7C2FEFFF76AFF05A0FFF7AA
:10129000B9F8FFF70FFA6820FFF7D6FBFFF7A2FCBB
:1012A000FCE700BF48656C6C6F00000030380A280E
:1012B00001D201207047002070473031323334357D
:1012C0003637383941424344454640305800303182
:1012D000323334353637383961626364656640309D
:1012E0007800040000080000000000000002000177
:1012F00000001002040608000000000102030401BF
:1013000002030406070809415700534543004441BE
:101310005445004D4F4E5448004354524C004D49E3
:101320004E005945415200484F5552004441590022
:101330004013000800000020080D000028010008EC
:04000005080000ED02
:00000001FF
